{
  "_format": "hh-sol-artifact-1",
  "contractName": "Medichain",
  "sourceName": "contracts/Medichain.sol",
  "abi": [
    {
      "inputs": [],
      "stateMutability": "nonpayable",
      "type": "constructor"
    },
    {
      "inputs": [
        {
          "internalType": "string",
          "name": "_name",
          "type": "string"
        },
        {
          "internalType": "address",
          "name": "_address",
          "type": "address"
        },
        {
          "internalType": "uint256",
          "name": "_id",
          "type": "uint256"
        },
        {
          "internalType": "string",
          "name": "_specification",
          "type": "string"
        },
        {
          "internalType": "uint256",
          "name": "_contact",
          "type": "uint256"
        },
        {
          "internalType": "string",
          "name": "_location",
          "type": "string"
        },
        {
          "internalType": "string",
          "name": "_password",
          "type": "string"
        }
      ],
      "name": "addDoctor",
      "outputs": [],
      "stateMutability": "nonpayable",
      "type": "function"
    },
    {
      "inputs": [
        {
          "internalType": "string",
          "name": "_name",
          "type": "string"
        },
        {
          "internalType": "uint256",
          "name": "_id",
          "type": "uint256"
        },
        {
          "internalType": "uint8",
          "name": "_age",
          "type": "uint8"
        },
        {
          "internalType": "string",
          "name": "_gender",
          "type": "string"
        },
        {
          "internalType": "uint256",
          "name": "_height",
          "type": "uint256"
        },
        {
          "internalType": "uint256",
          "name": "_weight",
          "type": "uint256"
        },
        {
          "internalType": "string",
          "name": "_location",
          "type": "string"
        },
        {
          "internalType": "uint256",
          "name": "_contact",
          "type": "uint256"
        },
        {
          "internalType": "string",
          "name": "_email",
          "type": "string"
        },
        {
          "internalType": "string",
          "name": "_password",
          "type": "string"
        }
      ],
      "name": "addPatinet",
      "outputs": [],
      "stateMutability": "nonpayable",
      "type": "function"
    },
    {
      "inputs": [
        {
          "internalType": "uint256",
          "name": "_recordId",
          "type": "uint256"
        },
        {
          "internalType": "uint256",
          "name": "_patientId",
          "type": "uint256"
        },
        {
          "internalType": "uint256",
          "name": "_doctorsId",
          "type": "uint256"
        },
        {
          "internalType": "string",
          "name": "_dignosis",
          "type": "string"
        },
        {
          "internalType": "string",
          "name": "_treatment",
          "type": "string"
        },
        {
          "internalType": "string",
          "name": "_prescreption",
          "type": "string"
        },
        {
          "internalType": "string",
          "name": "_tests",
          "type": "string"
        },
        {
          "internalType": "string",
          "name": "_date",
          "type": "string"
        }
      ],
      "name": "addRecord",
      "outputs": [],
      "stateMutability": "nonpayable",
      "type": "function"
    },
    {
      "inputs": [
        {
          "internalType": "uint256",
          "name": "",
          "type": "uint256"
        }
      ],
      "name": "docotorOfId",
      "outputs": [
        {
          "internalType": "string",
          "name": "name",
          "type": "string"
        },
        {
          "internalType": "address",
          "name": "add",
          "type": "address"
        },
        {
          "internalType": "uint256",
          "name": "id",
          "type": "uint256"
        },
        {
          "internalType": "string",
          "name": "specification",
          "type": "string"
        },
        {
          "internalType": "uint256",
          "name": "contact",
          "type": "uint256"
        },
        {
          "internalType": "string",
          "name": "location",
          "type": "string"
        },
        {
          "internalType": "string",
          "name": "password",
          "type": "string"
        }
      ],
      "stateMutability": "view",
      "type": "function"
    },
    {
      "inputs": [
        {
          "internalType": "uint256",
          "name": "_id",
          "type": "uint256"
        }
      ],
      "name": "getPatient",
      "outputs": [
        {
          "components": [
            {
              "internalType": "string",
              "name": "name",
              "type": "string"
            },
            {
              "internalType": "uint256",
              "name": "id",
              "type": "uint256"
            },
            {
              "internalType": "uint8",
              "name": "age",
              "type": "uint8"
            },
            {
              "internalType": "string",
              "name": "gender",
              "type": "string"
            },
            {
              "internalType": "uint256",
              "name": "height",
              "type": "uint256"
            },
            {
              "internalType": "uint256",
              "name": "weight",
              "type": "uint256"
            },
            {
              "internalType": "string",
              "name": "location",
              "type": "string"
            },
            {
              "internalType": "uint256",
              "name": "contact",
              "type": "uint256"
            },
            {
              "internalType": "string",
              "name": "email",
              "type": "string"
            },
            {
              "internalType": "string",
              "name": "password",
              "type": "string"
            }
          ],
          "internalType": "struct Medichain.patient",
          "name": "",
          "type": "tuple"
        }
      ],
      "stateMutability": "view",
      "type": "function"
    },
    {
      "inputs": [
        {
          "internalType": "uint256",
          "name": "_id",
          "type": "uint256"
        }
      ],
      "name": "getPatientRecords",
      "outputs": [
        {
          "components": [
            {
              "internalType": "uint256",
              "name": "recordId",
              "type": "uint256"
            },
            {
              "internalType": "uint256",
              "name": "patientId",
              "type": "uint256"
            },
            {
              "internalType": "uint256",
              "name": "docotorsId",
              "type": "uint256"
            },
            {
              "internalType": "string",
              "name": "digonsis",
              "type": "string"
            },
            {
              "internalType": "string",
              "name": "treatment",
              "type": "string"
            },
            {
              "internalType": "string",
              "name": "prescreption",
              "type": "string"
            },
            {
              "internalType": "string",
              "name": "tests",
              "type": "string"
            },
            {
              "internalType": "string",
              "name": "date",
              "type": "string"
            }
          ],
          "internalType": "struct Medichain.record[]",
          "name": "",
          "type": "tuple[]"
        }
      ],
      "stateMutability": "view",
      "type": "function"
    },
    {
      "inputs": [
        {
          "internalType": "address",
          "name": "",
          "type": "address"
        }
      ],
      "name": "isAccessOf",
      "outputs": [
        {
          "internalType": "bool",
          "name": "",
          "type": "bool"
        }
      ],
      "stateMutability": "view",
      "type": "function"
    },
    {
      "inputs": [
        {
          "internalType": "uint256",
          "name": "",
          "type": "uint256"
        }
      ],
      "name": "patientOfId",
      "outputs": [
        {
          "internalType": "string",
          "name": "name",
          "type": "string"
        },
        {
          "internalType": "uint256",
          "name": "id",
          "type": "uint256"
        },
        {
          "internalType": "uint8",
          "name": "age",
          "type": "uint8"
        },
        {
          "internalType": "string",
          "name": "gender",
          "type": "string"
        },
        {
          "internalType": "uint256",
          "name": "height",
          "type": "uint256"
        },
        {
          "internalType": "uint256",
          "name": "weight",
          "type": "uint256"
        },
        {
          "internalType": "string",
          "name": "location",
          "type": "string"
        },
        {
          "internalType": "uint256",
          "name": "contact",
          "type": "uint256"
        },
        {
          "internalType": "string",
          "name": "email",
          "type": "string"
        },
        {
          "internalType": "string",
          "name": "password",
          "type": "string"
        }
      ],
      "stateMutability": "view",
      "type": "function"
    },
    {
      "inputs": [
        {
          "internalType": "uint256",
          "name": "",
          "type": "uint256"
        },
        {
          "internalType": "uint256",
          "name": "",
          "type": "uint256"
        }
      ],
      "name": "recordsOf",
      "outputs": [
        {
          "internalType": "uint256",
          "name": "recordId",
          "type": "uint256"
        },
        {
          "internalType": "uint256",
          "name": "patientId",
          "type": "uint256"
        },
        {
          "internalType": "uint256",
          "name": "docotorsId",
          "type": "uint256"
        },
        {
          "internalType": "string",
          "name": "digonsis",
          "type": "string"
        },
        {
          "internalType": "string",
          "name": "treatment",
          "type": "string"
        },
        {
          "internalType": "string",
          "name": "prescreption",
          "type": "string"
        },
        {
          "internalType": "string",
          "name": "tests",
          "type": "string"
        },
        {
          "internalType": "string",
          "name": "date",
          "type": "string"
        }
      ],
      "stateMutability": "view",
      "type": "function"
    }
  ],
  "bytecode": "0x608060405234801561001057600080fd5b50336000806101000a81548173ffffffffffffffffffffffffffffffffffffffff021916908373ffffffffffffffffffffffffffffffffffffffff1602179055506126ce806100606000396000f3fe608060405234801561001057600080fd5b50600436106100935760003560e01c80637237fab0116100665780637237fab0146101515780637d3a67961461016d578063ac3f08f51461019d578063cee9a2e8146101d6578063dce7e843146101f257610093565b806329c1b3d6146100985780632bbea577146100c85780632d302795146100e4578063618232f11461011b575b600080fd5b6100b260048036038101906100ad91906117af565b610222565b6040516100bf91906117f7565b60405180910390f35b6100e260048036038101906100dd919061198e565b610242565b005b6100fe60048036038101906100f99190611ad0565b6103a6565b604051610112989796959493929190611b9e565b60405180910390f35b61013560048036038101906101309190611c3f565b6106b3565b6040516101489796959493929190611c7b565b60405180910390f35b61016b60048036038101906101669190611d06565b610935565b005b61018760048036038101906101829190611c3f565b610b00565b6040516101949190611f83565b60405180910390f35b6101b760048036038101906101b29190611c3f565b610ea3565b6040516101cd9a99989796959493929190611fb4565b60405180910390f35b6101f060048036038101906101eb919061209f565b6111ac565b005b61020c60048036038101906102079190611c3f565b611326565b6040516102199190612398565b60405180910390f35b60046020528060005260406000206000915054906101000a900460ff1681565b600460003373ffffffffffffffffffffffffffffffffffffffff1673ffffffffffffffffffffffffffffffffffffffff16815260200190815260200160002060009054906101000a900460ff1661029857600080fd5b600160008881526020019081526020016000206040518061010001604052808a8152602001898152602001888152602001878152602001868152602001858152602001848152602001838152509080600181540180825580915050600190039060005260206000209060080201600090919091909150600082015181600001556020820151816001015560408201518160020155606082015181600301908161034191906125c6565b50608082015181600401908161035791906125c6565b5060a082015181600501908161036d91906125c6565b5060c082015181600601908161038391906125c6565b5060e082015181600701908161039991906125c6565b5050505050505050505050565b600160205281600052604060002081815481106103c257600080fd5b9060005260206000209060080201600091509150508060000154908060010154908060020154908060030180546103f8906123e9565b80601f0160208091040260200160405190810160405280929190818152602001828054610424906123e9565b80156104715780601f1061044657610100808354040283529160200191610471565b820191906000526020600020905b81548152906001019060200180831161045457829003601f168201915b505050505090806004018054610486906123e9565b80601f01602080910402602001604051908101604052809291908181526020018280546104b2906123e9565b80156104ff5780601f106104d4576101008083540402835291602001916104ff565b820191906000526020600020905b8154815290600101906020018083116104e257829003601f168201915b505050505090806005018054610514906123e9565b80601f0160208091040260200160405190810160405280929190818152602001828054610540906123e9565b801561058d5780601f106105625761010080835404028352916020019161058d565b820191906000526020600020905b81548152906001019060200180831161057057829003601f168201915b5050505050908060060180546105a2906123e9565b80601f01602080910402602001604051908101604052809291908181526020018280546105ce906123e9565b801561061b5780601f106105f05761010080835404028352916020019161061b565b820191906000526020600020905b8154815290600101906020018083116105fe57829003601f168201915b505050505090806007018054610630906123e9565b80601f016020809104026020016040519081016040528092919081815260200182805461065c906123e9565b80156106a95780601f1061067e576101008083540402835291602001916106a9565b820191906000526020600020905b81548152906001019060200180831161068c57829003601f168201915b5050505050905088565b60036020528060005260406000206000915090508060000180546106d6906123e9565b80601f0160208091040260200160405190810160405280929190818152602001828054610702906123e9565b801561074f5780601f106107245761010080835404028352916020019161074f565b820191906000526020600020905b81548152906001019060200180831161073257829003601f168201915b5050505050908060010160009054906101000a900473ffffffffffffffffffffffffffffffffffffffff1690806002015490806003018054610790906123e9565b80601f01602080910402602001604051908101604052809291908181526020018280546107bc906123e9565b80156108095780601f106107de57610100808354040283529160200191610809565b820191906000526020600020905b8154815290600101906020018083116107ec57829003601f168201915b505050505090806004015490806005018054610824906123e9565b80601f0160208091040260200160405190810160405280929190818152602001828054610850906123e9565b801561089d5780601f106108725761010080835404028352916020019161089d565b820191906000526020600020905b81548152906001019060200180831161088057829003601f168201915b5050505050908060060180546108b2906123e9565b80601f01602080910402602001604051908101604052809291908181526020018280546108de906123e9565b801561092b5780601f106109005761010080835404028352916020019161092b565b820191906000526020600020905b81548152906001019060200180831161090e57829003601f168201915b5050505050905087565b60008054906101000a900473ffffffffffffffffffffffffffffffffffffffff1673ffffffffffffffffffffffffffffffffffffffff163373ffffffffffffffffffffffffffffffffffffffff161461098d57600080fd5b6040518060e001604052808881526020018773ffffffffffffffffffffffffffffffffffffffff168152602001868152602001858152602001848152602001838152602001828152506003600087815260200190815260200160002060008201518160000190816109fe91906125c6565b5060208201518160010160006101000a81548173ffffffffffffffffffffffffffffffffffffffff021916908373ffffffffffffffffffffffffffffffffffffffff160217905550604082015181600201556060820151816003019081610a6591906125c6565b506080820151816004015560a0820151816005019081610a8591906125c6565b5060c0820151816006019081610a9b91906125c6565b509050506001600460008873ffffffffffffffffffffffffffffffffffffffff1673ffffffffffffffffffffffffffffffffffffffff16815260200190815260200160002060006101000a81548160ff02191690831515021790555050505050505050565b610b086116e7565b600460003373ffffffffffffffffffffffffffffffffffffffff1673ffffffffffffffffffffffffffffffffffffffff16815260200190815260200160002060009054906101000a900460ff16610b5e57600080fd5b6002600083815260200190815260200160002060405180610140016040529081600082018054610b8d906123e9565b80601f0160208091040260200160405190810160405280929190818152602001828054610bb9906123e9565b8015610c065780601f10610bdb57610100808354040283529160200191610c06565b820191906000526020600020905b815481529060010190602001808311610be957829003601f168201915b50505050508152602001600182015481526020016002820160009054906101000a900460ff1660ff1660ff168152602001600382018054610c46906123e9565b80601f0160208091040260200160405190810160405280929190818152602001828054610c72906123e9565b8015610cbf5780601f10610c9457610100808354040283529160200191610cbf565b820191906000526020600020905b815481529060010190602001808311610ca257829003601f168201915b505050505081526020016004820154815260200160058201548152602001600682018054610cec906123e9565b80601f0160208091040260200160405190810160405280929190818152602001828054610d18906123e9565b8015610d655780601f10610d3a57610100808354040283529160200191610d65565b820191906000526020600020905b815481529060010190602001808311610d4857829003601f168201915b5050505050815260200160078201548152602001600882018054610d88906123e9565b80601f0160208091040260200160405190810160405280929190818152602001828054610db4906123e9565b8015610e015780601f10610dd657610100808354040283529160200191610e01565b820191906000526020600020905b815481529060010190602001808311610de457829003601f168201915b50505050508152602001600982018054610e1a906123e9565b80601f0160208091040260200160405190810160405280929190818152602001828054610e46906123e9565b8015610e935780601f10610e6857610100808354040283529160200191610e93565b820191906000526020600020905b815481529060010190602001808311610e7657829003601f168201915b5050505050815250509050919050565b6002602052806000526040600020600091509050806000018054610ec6906123e9565b80601f0160208091040260200160405190810160405280929190818152602001828054610ef2906123e9565b8015610f3f5780601f10610f1457610100808354040283529160200191610f3f565b820191906000526020600020905b815481529060010190602001808311610f2257829003601f168201915b5050505050908060010154908060020160009054906101000a900460ff1690806003018054610f6d906123e9565b80601f0160208091040260200160405190810160405280929190818152602001828054610f99906123e9565b8015610fe65780601f10610fbb57610100808354040283529160200191610fe6565b820191906000526020600020905b815481529060010190602001808311610fc957829003601f168201915b505050505090806004015490806005015490806006018054611007906123e9565b80601f0160208091040260200160405190810160405280929190818152602001828054611033906123e9565b80156110805780601f1061105557610100808354040283529160200191611080565b820191906000526020600020905b81548152906001019060200180831161106357829003601f168201915b50505050509080600701549080600801805461109b906123e9565b80601f01602080910402602001604051908101604052809291908181526020018280546110c7906123e9565b80156111145780601f106110e957610100808354040283529160200191611114565b820191906000526020600020905b8154815290600101906020018083116110f757829003601f168201915b505050505090806009018054611129906123e9565b80601f0160208091040260200160405190810160405280929190818152602001828054611155906123e9565b80156111a25780601f10611177576101008083540402835291602001916111a2565b820191906000526020600020905b81548152906001019060200180831161118557829003601f168201915b505050505090508a565b600460003373ffffffffffffffffffffffffffffffffffffffff1673ffffffffffffffffffffffffffffffffffffffff16815260200190815260200160002060009054906101000a900460ff1661120257600080fd5b6040518061014001604052808b81526020018a81526020018960ff16815260200188815260200187815260200186815260200185815260200184815260200183815260200182815250600260008b8152602001908152602001600020600082015181600001908161127391906125c6565b506020820151816001015560408201518160020160006101000a81548160ff021916908360ff16021790555060608201518160030190816112b491906125c6565b506080820151816004015560a0820151816005015560c08201518160060190816112de91906125c6565b5060e082015181600701556101008201518160080190816112ff91906125c6565b5061012082015181600901908161131691906125c6565b5090505050505050505050505050565b6060600460003373ffffffffffffffffffffffffffffffffffffffff1673ffffffffffffffffffffffffffffffffffffffff16815260200190815260200160002060009054906101000a900460ff1661137e57600080fd5b60016000838152602001908152602001600020805480602002602001604051908101604052809291908181526020016000905b828210156116dc578382906000526020600020906008020160405180610100016040529081600082015481526020016001820154815260200160028201548152602001600382018054611403906123e9565b80601f016020809104026020016040519081016040528092919081815260200182805461142f906123e9565b801561147c5780601f106114515761010080835404028352916020019161147c565b820191906000526020600020905b81548152906001019060200180831161145f57829003601f168201915b50505050508152602001600482018054611495906123e9565b80601f01602080910402602001604051908101604052809291908181526020018280546114c1906123e9565b801561150e5780601f106114e35761010080835404028352916020019161150e565b820191906000526020600020905b8154815290600101906020018083116114f157829003601f168201915b50505050508152602001600582018054611527906123e9565b80601f0160208091040260200160405190810160405280929190818152602001828054611553906123e9565b80156115a05780601f10611575576101008083540402835291602001916115a0565b820191906000526020600020905b81548152906001019060200180831161158357829003601f168201915b505050505081526020016006820180546115b9906123e9565b80601f01602080910402602001604051908101604052809291908181526020018280546115e5906123e9565b80156116325780601f1061160757610100808354040283529160200191611632565b820191906000526020600020905b81548152906001019060200180831161161557829003601f168201915b5050505050815260200160078201805461164b906123e9565b80601f0160208091040260200160405190810160405280929190818152602001828054611677906123e9565b80156116c45780601f10611699576101008083540402835291602001916116c4565b820191906000526020600020905b8154815290600101906020018083116116a757829003601f168201915b505050505081525050815260200190600101906113b1565b505050509050919050565b6040518061014001604052806060815260200160008152602001600060ff168152602001606081526020016000815260200160008152602001606081526020016000815260200160608152602001606081525090565b6000604051905090565b600080fd5b600080fd5b600073ffffffffffffffffffffffffffffffffffffffff82169050919050565b600061177c82611751565b9050919050565b61178c81611771565b811461179757600080fd5b50565b6000813590506117a981611783565b92915050565b6000602082840312156117c5576117c4611747565b5b60006117d38482850161179a565b91505092915050565b60008115159050919050565b6117f1816117dc565b82525050565b600060208201905061180c60008301846117e8565b92915050565b6000819050919050565b61182581611812565b811461183057600080fd5b50565b6000813590506118428161181c565b92915050565b600080fd5b600080fd5b6000601f19601f8301169050919050565b7f4e487b7100000000000000000000000000000000000000000000000000000000600052604160045260246000fd5b61189b82611852565b810181811067ffffffffffffffff821117156118ba576118b9611863565b5b80604052505050565b60006118cd61173d565b90506118d98282611892565b919050565b600067ffffffffffffffff8211156118f9576118f8611863565b5b61190282611852565b9050602081019050919050565b82818337600083830152505050565b600061193161192c846118de565b6118c3565b90508281526020810184848401111561194d5761194c61184d565b5b61195884828561190f565b509392505050565b600082601f83011261197557611974611848565b5b813561198584826020860161191e565b91505092915050565b600080600080600080600080610100898b0312156119af576119ae611747565b5b60006119bd8b828c01611833565b98505060206119ce8b828c01611833565b97505060406119df8b828c01611833565b965050606089013567ffffffffffffffff811115611a00576119ff61174c565b5b611a0c8b828c01611960565b955050608089013567ffffffffffffffff811115611a2d57611a2c61174c565b5b611a398b828c01611960565b94505060a089013567ffffffffffffffff811115611a5a57611a5961174c565b5b611a668b828c01611960565b93505060c089013567ffffffffffffffff811115611a8757611a8661174c565b5b611a938b828c01611960565b92505060e089013567ffffffffffffffff811115611ab457611ab361174c565b5b611ac08b828c01611960565b9150509295985092959890939650565b60008060408385031215611ae757611ae6611747565b5b6000611af585828601611833565b9250506020611b0685828601611833565b9150509250929050565b611b1981611812565b82525050565b600081519050919050565b600082825260208201905092915050565b60005b83811015611b59578082015181840152602081019050611b3e565b60008484015250505050565b6000611b7082611b1f565b611b7a8185611b2a565b9350611b8a818560208601611b3b565b611b9381611852565b840191505092915050565b600061010082019050611bb4600083018b611b10565b611bc1602083018a611b10565b611bce6040830189611b10565b8181036060830152611be08188611b65565b90508181036080830152611bf48187611b65565b905081810360a0830152611c088186611b65565b905081810360c0830152611c1c8185611b65565b905081810360e0830152611c308184611b65565b90509998505050505050505050565b600060208284031215611c5557611c54611747565b5b6000611c6384828501611833565b91505092915050565b611c7581611771565b82525050565b600060e0820190508181036000830152611c95818a611b65565b9050611ca46020830189611c6c565b611cb16040830188611b10565b8181036060830152611cc38187611b65565b9050611cd26080830186611b10565b81810360a0830152611ce48185611b65565b905081810360c0830152611cf88184611b65565b905098975050505050505050565b600080600080600080600060e0888a031215611d2557611d24611747565b5b600088013567ffffffffffffffff811115611d4357611d4261174c565b5b611d4f8a828b01611960565b9750506020611d608a828b0161179a565b9650506040611d718a828b01611833565b955050606088013567ffffffffffffffff811115611d9257611d9161174c565b5b611d9e8a828b01611960565b9450506080611daf8a828b01611833565b93505060a088013567ffffffffffffffff811115611dd057611dcf61174c565b5b611ddc8a828b01611960565b92505060c088013567ffffffffffffffff811115611dfd57611dfc61174c565b5b611e098a828b01611960565b91505092959891949750929550565b600082825260208201905092915050565b6000611e3482611b1f565b611e3e8185611e18565b9350611e4e818560208601611b3b565b611e5781611852565b840191505092915050565b611e6b81611812565b82525050565b600060ff82169050919050565b611e8781611e71565b82525050565b6000610140830160008301518482036000860152611eab8282611e29565b9150506020830151611ec06020860182611e62565b506040830151611ed36040860182611e7e565b5060608301518482036060860152611eeb8282611e29565b9150506080830151611f006080860182611e62565b5060a0830151611f1360a0860182611e62565b5060c083015184820360c0860152611f2b8282611e29565b91505060e0830151611f4060e0860182611e62565b50610100830151848203610100860152611f5a8282611e29565b915050610120830151848203610120860152611f768282611e29565b9150508091505092915050565b60006020820190508181036000830152611f9d8184611e8d565b905092915050565b611fae81611e71565b82525050565b6000610140820190508181036000830152611fcf818d611b65565b9050611fde602083018c611b10565b611feb604083018b611fa5565b8181036060830152611ffd818a611b65565b905061200c6080830189611b10565b61201960a0830188611b10565b81810360c083015261202b8187611b65565b905061203a60e0830186611b10565b81810361010083015261204d8185611b65565b90508181036101208301526120628184611b65565b90509b9a5050505050505050505050565b61207c81611e71565b811461208757600080fd5b50565b60008135905061209981612073565b92915050565b6000806000806000806000806000806101408b8d0312156120c3576120c2611747565b5b60008b013567ffffffffffffffff8111156120e1576120e061174c565b5b6120ed8d828e01611960565b9a505060206120fe8d828e01611833565b995050604061210f8d828e0161208a565b98505060608b013567ffffffffffffffff8111156121305761212f61174c565b5b61213c8d828e01611960565b975050608061214d8d828e01611833565b96505060a061215e8d828e01611833565b95505060c08b013567ffffffffffffffff81111561217f5761217e61174c565b5b61218b8d828e01611960565b94505060e061219c8d828e01611833565b9350506101008b013567ffffffffffffffff8111156121be576121bd61174c565b5b6121ca8d828e01611960565b9250506101208b013567ffffffffffffffff8111156121ec576121eb61174c565b5b6121f88d828e01611960565b9150509295989b9194979a5092959850565b600081519050919050565b600082825260208201905092915050565b6000819050602082019050919050565b60006101008301600083015161224f6000860182611e62565b5060208301516122626020860182611e62565b5060408301516122756040860182611e62565b506060830151848203606086015261228d8282611e29565b915050608083015184820360808601526122a78282611e29565b91505060a083015184820360a08601526122c18282611e29565b91505060c083015184820360c08601526122db8282611e29565b91505060e083015184820360e08601526122f58282611e29565b9150508091505092915050565b600061230e8383612236565b905092915050565b6000602082019050919050565b600061232e8261220a565b6123388185612215565b93508360208202850161234a85612226565b8060005b8581101561238657848403895281516123678582612302565b945061237283612316565b925060208a0199505060018101905061234e565b50829750879550505050505092915050565b600060208201905081810360008301526123b28184612323565b905092915050565b7f4e487b7100000000000000000000000000000000000000000000000000000000600052602260045260246000fd5b6000600282049050600182168061240157607f821691505b602082108103612414576124136123ba565b5b50919050565b60008190508160005260206000209050919050565b60006020601f8301049050919050565b600082821b905092915050565b60006008830261247c7fffffffffffffffffffffffffffffffffffffffffffffffffffffffffffffffff8261243f565b612486868361243f565b95508019841693508086168417925050509392505050565b6000819050919050565b60006124c36124be6124b984611812565b61249e565b611812565b9050919050565b6000819050919050565b6124dd836124a8565b6124f16124e9826124ca565b84845461244c565b825550505050565b600090565b6125066124f9565b6125118184846124d4565b505050565b5b818110156125355761252a6000826124fe565b600181019050612517565b5050565b601f82111561257a5761254b8161241a565b6125548461242f565b81016020851015612563578190505b61257761256f8561242f565b830182612516565b50505b505050565b600082821c905092915050565b600061259d6000198460080261257f565b1980831691505092915050565b60006125b6838361258c565b9150826002028217905092915050565b6125cf82611b1f565b67ffffffffffffffff8111156125e8576125e7611863565b5b6125f282546123e9565b6125fd828285612539565b600060209050601f831160018114612630576000841561261e578287015190505b61262885826125aa565b865550612690565b601f19841661263e8661241a565b60005b8281101561266657848901518255600182019150602085019450602081019050612641565b86831015612683578489015161267f601f89168261258c565b8355505b6001600288020188555050505b50505050505056fea2646970667358221220ddb61a32817558c4937c105a027bb2b055a54344d3fc111353f05620d8a7e15564736f6c63430008120033",
  "linkReferences": {},
  "deployedLinkReferences": {}
}